:100000000C94A1010C94B6010C94B6010C94B601A9
:100010000C94B6010C94B6010C94B6010C94B60184
:100020000C94B6010C94B6010C94B6010C94B60174
:100030000C94B6010C94B6010C94B6010C94B60164
:100040000C94B6010C94B6010C94B6010C94B60154
:100050000C94B6010C94B6010C94B6010C94B60144
:100060000C94B6010C94B601AED580A83FD30040E5
:100070008D142000A1C8DA1281CFD9F1DB40A4A6EB
:10008000AF000000000000005F0000000700070054
:10009000147F147F14242A7F2A12231308646236E3
:1000A000495522500005030000001C224100004178
:1000B000221C00082A1C2A0808083E0808005030A4
:1000C000000008080808080060600000201008040C
:1000D000023E5149453E00427F400042615149463F
:1000E0002141454B311814127F1027454545393CB5
:1000F0004A494930017109050336494949360649DB
:1001000049291E0036360000005636000008142229
:10011000410014141414140041221408020151095E
:1001200006324979413E7E1111117E7F4949493697
:100130003E414141227F4141221C7F494949417F43
:10014000090909013E4149497A7F0808087F0041B1
:100150007F41002040413F017F081422417F404001
:1001600040407F0204027F7F0408107F3E414141EE
:100170003E7F090909063E4151215E7F0919294642
:10018000464949493101017F01013F4040403F1F3D
:100190002040201F3F4038403F6314081463070885
:1001A0007008076151494543007F4141000204083E
:1001B00010200041417F0004020102044040404001
:1001C00040000102040020545454787F48444438CD
:1001D0003844444420384444487F38545454180820
:1001E0007E0901020C5252523E7F080404780044FA
:1001F0007D40002040443D007F1028440000417FA6
:1002000040007C041804787C080404783844444492
:10021000387C14141408081414187C7C080404088E
:100220004854545420043F4440203C4040207C1C0F
:100230002040201C3C4030403C44281028440C50B6
:1002400050503C4464544C4400407A10F35A00A08F
:10025000724E18090010A5D4E80000E8764817008F
:1002600000E40B54020000CA9A3B000000E1F505CF
:10027000000080969800000040420F000000A08619
:1002800001000000102700000000E803000000004B
:100290006400000000000A000000000001000000EF
:1002A00000002C76D888DC674F0823DFC1DFAE5909
:1002B000E1B1B796E5E3E453C63AE651997696E89C
:1002C000E6C28426EB898C9B62ED407C6FFCEFBC20
:1002D0009C9F40F2BAA56FA5F490055A2AF75C934B
:1002E0006B6CF9676DC11BFCE0E40D47FEF520E681
:1002F000B500D0ED902E0300943577050080841E64
:10030000080000204E0A000000C80C333333330FBE
:10031000986E12831141EF8D2114893BE65516CF5B
:10032000FEE6DB18D1844B381BF77C1D901DA4BB67
:10033000E424203284725E228100C9F124ECA1E51C
:100340003D2711241FBECFEFD8E0DEBFCDBF13E0A5
:10035000A0E0B1E0EEEEFCE102C005900D92AE36F9
:10036000B107D9F70E948A020C94750E0C94000014
:10037000982F84EA8093BC008091BC0087FFFCCF5B
:1003800088E78093BB0084E88093BC008091BC0028
:1003900087FFFCCF1092BB0084E88093BC00809163
:1003A000BC0087FFFCCF9093BB0084E88093BC0027
:1003B0008091BC0087FFFCCF84E98093BC00089546
:1003C000982F84EA8093BC008091BC0087FFFCCF0B
:1003D00088E78093BB0084E88093BC008091BC00D8
:1003E00087FFFCCF80E48093BB0084E88093BC004F
:1003F0008091BC0087FFFCCF9093BB0084E8809382
:10040000BC008091BC0087FFFCCF84E98093BC00D6
:1004100008951F93162F8770806B0E94B801812F5B
:100420008F700E94B80112951F70812F80610E9409
:10043000B8011F9108950F931F9300E0802F60E093
:100440000E94090210E080E00E94E0011F5F103866
:10045000D1F70F5F083091F71F910F9108950F9317
:100460001F93062F60E00E94090210E0802F0E9477
:10047000E0011F5F1038D1F71F910F910895CF92BF
:10048000DF92EF92FF920F931F93CF93DF93C82ECB
:10049000D62E7A0123C0812F80528B3508F010E2CE
:1004A0008C2D6D2D0E94090225E01202C00111243D
:1004B000EC01CF51D0408C010A511040FE018491D3
:1004C0000E94E0012196C017D107C1F70894E11CF2
:1004D000F11C80E00E94E001F6E0DF0EF7011081E0
:1004E000112311F0D7FED7CFDF91CF911F910F913C
:1004F000FF90EF90DF90CF900895FC0107C08091AE
:10050000C00085FFFCCF31969093C600908199235F
:10051000B1F708952F923F924F925F926F927F9220
:100520008F929F92AF92BF92CF92DF92EF92FF9203
:100530000F931F93DF93CF93CDB7DEB7C055D34052
:100540000FB6F894DEBF0FBECDBF1092C50087E690
:100550008093C40088E08093C10086E08093C2004D
:100560008CE08093B8008091B9008C7F8093B900B3
:1005700084E08093BC0088EE93E020E931E0F9014B
:100580003197F1F70197D9F708E610E0F801849167
:100590000E94B8010F5F1F4FF0E001381F07B1F74D
:1005A0000E941B020E941B0280E06FEF0E942F023C
:1005B00081E068E040E051E00E943F0282E06EE0AE
:1005C00040E151E00E943F0283E06FEF0E942F0262
:1005D00084E064E040E251E00E943F0285E064E094
:1005E0004AE251E00E943F0286E064E04AE351E0C3
:1005F0000E943F0287E06FEF0E942F0281E591E0A9
:100600000E947D0284E591E00E947D0287E791E0EF
:100610000E947D028AE991E00E947D028DEB91E0CB
:100620000E947D0280EE91E00E947D0283E092E0D4
:100630000E947D0284E591E00E947D0281E591E0C7
:100640000E947D0280E29EE420E931E0F9013197C9
:10065000F1F70197D9F70E941B02FF24CE01835BBB
:100660009C4FC35BDC4F99838883CD54D340DE011C
:100670005496C15BDC4FB983A883CF54D3402CC0C0
:1006800080E480937C0087EC80937A0080917A00EC
:1006900086FDFCCF60917800709179000F2D10E0FD
:1006A000000F111F000F111FE1E0F0E0EC0FFD1F24
:1006B0000E0F1F1F80E090E00E94F9082AE038E248
:1006C00040EA5BE30E94F306D8019C966D937D930C
:1006D0008D939C939F97F394B7ECBF1588F6B1E385
:1006E000CB2ED12CCC0EDD1E8601EE24FF24F394FC
:1006F000EE2DF0E0EE0FFF1FEE0FFF1F8DE290E0FA
:100700008C0F9D1FE80FF91FD8016D917D918D9180
:100710009C9120813181428153810E949908181651
:100720000CF4EF2C0C5F1F4FF394B8ECFB1601F7A1
:1007300000E011E0E02FF0E0EE0FFF1FEE0FFF1FD3
:100740008DE290E08C0F9D1FE80FF91FD6016D918F
:100750007D918D919C9120813181428153810E94B4
:10076000C90888230CF4012FE4E0F0E0CE0EDF1E70
:100770001F5F183CF9F60E1518F4DE2CD01A02C0D3
:10078000D02EDE18DD2019F4DD24D39405C0F3E665
:10079000FD1510F463E6D62EAD2CBB24AA0CBB1CB1
:1007A0000F2EF0E0EF2EF0E0FF2EF0E00F2FF0E044
:1007B0001F2FF02DCC2415C0EE0FFF1FEE0FFF1FD3
:1007C00081E090E08C0F9D1FE80FF91FC801B70171
:1007D00024A535A546A557A50E94C6067B018C0118
:1007E000C394EC2DF0E0EA15FB0534F36D2D70E0B9
:1007F00080E090E00E94F9089B01AC010E94C606CF
:100800001B012C01C801B701A20191010E94ED0753
:100810003B014C01E89497F88E01035D1F4FD8010E
:100820006D917D918D919C91A40193010E949506FB
:10083000F80161937193819391938F01C35BDC4FB6
:1008400088819981CD54D340E817F90741F7DD2419
:100850000F2EF0E0EF2EF0E0FF2EF0E00F2FF0E093
:100860001F2FF02D1BC0EE0FFF1FEE0FFF1FA1E08B
:10087000B0E0AC0FBD1FEA0FFB1F24A535A546A5B0
:1008800057A5CA01B9010E94F3069B01AC01C8013A
:10089000B7010E94C6067B018C01D394ED2DF0E0D8
:1008A000EA15FB0504F3C801B701A20191010E94FA
:1008B000ED070E94C30B5B016C01C401B30120E092
:1008C00030E040EA50E40E949908181654F40F2EC4
:1008D000F0E06F2EF0E07F2EF0E08F2EF0E09F2E04
:1008E000F02DC601B50120E030E040EA50E40E945E
:1008F0009908181654F0C601B50120E030E040E038
:1009000050E00E94C908882354F40F2EF0E0AF2E67
:10091000F0E0BF2EF0E0CF2EF0E0DF2EF02D86E2EB
:1009200092E00E947D02C401B30146E023E08E0103
:100930000F5F1F4F0E949E0BC8010E947D028FE235
:1009400092E00E947D02C601B50146E023E08E01DF
:100950000F5F1F4F0E949E0BC8010E947D028DE316
:1009600092E00E947D0280E06FEF0E942F0280E003
:100970006AE042E452E00E943F0281E06FEF0E9491
:100980002F0282E060E00E942F02C401B30147E021
:1009900023E08E01035F1F4F0E949E0B86E5898F27
:1009A00081E68A8F86E78B8F87E68C8F8AE38D8F2F
:1009B00080E28E8F38012FE1422E512C4C0E5D1EAD
:1009C0004801F201D4018D914D018193C15BDC4F4F
:1009D00088819981CF54D340A817B90799F790E23D
:1009E000E92EEEA286E5F82EFFA218A682E064E0CA
:1009F000AE01475E5F4F0E943F0283E060E00E94CD
:100A00002F0284E060E00E942F02C601B50147E09A
:100A100023E08E01035F1F4F0E949E0BF98E82E739
:100A20008A8F8DE68B8F83E78C8F8AE38D8FEE8E96
:100A3000D3018D913D01F20181932F01A815B905D4
:100A4000B9F780E28EA386E58FA318A684E064E060
:100A5000AE01475E5F4F0E943F0285E060E00E946A
:100A60002F0286E060E00E942F0286E064E044E509
:100A700052E00E943F0287E06FEF0E942F0288E859
:100A800093E1E0E9F1E03197F1F70197D1F7FF2425
:100A9000F7CDA0E0B0E0EFE4F5E00C94670BDC01EB
:100AA0002B01FA019C91923008F439C1EB01888145
:100AB000823008F433C1943069F4843009F02FC1D6
:100AC00011969C9111978981981709F428C1A6E67F
:100AD000B2E025C1843009F421C18230A9F49230FA
:100AE00009F01DC19A01AD0188E0EA010990AE014B
:100AF000E90109929E018150C1F7E20189811196B5
:100B00009C918923818308C1923009F407C1129610
:100B10002D903C901397EB018A819B811496AD90A8
:100B2000BD90CD90DC901797EC80FD800E811F81E9
:100B30009101281B390BB90137FF04C066277727BD
:100B4000621B730B603271050CF061C01216130644
:100B50006CF537014801062E04C09694879477946B
:100B600067940A94D2F721E030E040E050E004C0FE
:100B7000220F331F441F551F6A95D2F72150304072
:100B8000404050402E213F21402351232115310563
:100B90004105510521F021E030E040E050E07901CD
:100BA0008A01E628F728082919293CC0232BD1F10E
:100BB000260E371E35014601062E04C096948794F2
:100BC000779467940A94D2F721E030E040E050E057
:100BD00004C0220F331F441F551F6A95D2F72150BE
:100BE0003040404050402A213B214C215D212115BD
:100BF00031054105510521F021E030E040E050E0B1
:100C000059016A01A628B728C828D9280BC082151F
:100C100093052CF01C01AA24BB24650103C0EE241B
:100C2000FF24870111969C91D20111968C919817FF
:100C300009F445C0992339F0A80197012A193B0905
:100C40004C095D0906C0A60195012E193F09400B0C
:100C5000510B57FD08C011823382228224833583D1
:100C6000468357831DC081E0818333822282882797
:100C70009927DC01821B930BA40BB50B848395830E
:100C8000A683B7830DC0220F331F441F551F248333
:100C9000358346835783828193810197938382832F
:100CA0002481358146815781DA01C9010197A10963
:100CB000B1098F5F9F4FAF4FBF4328F30BC09183A4
:100CC00033822282EA0CFB1C0C1D1D1DE482F5827E
:100CD0000683178383E08083248135814681578191
:100CE00057FF1AC0C901AA2797FDA095BA2F817096
:100CF0009070A070B0705695479537952795822BC8
:100D0000932BA42BB52B84839583A683B7838281F1
:100D10009381019693838283DF0101C0D201CD01CB
:100D2000CDB7DEB7E2E10C94830BA0E2B0E0EBE9D3
:100D3000F6E00C94730B69837A838B839C832D83F9
:100D40003E834F835887E9E0EE2EF12CEC0EFD1E1A
:100D5000CE010196B7010E94960A8E010F5E1F4FC9
:100D6000CE010596B8010E94960A8A8991E08927EA
:100D70008A8BC701B801AE01475E5F4F0E944905EB
:100D80000E94C109A096E6E00C948F0BA0E2B0E0AF
:100D9000ECECF6E00C94730B69837A838B839C8371
:100DA0002D833E834F835887F9E0EF2EF12CEC0E14
:100DB000FD1ECE010196B7010E94960A8E010F5EBC
:100DC0001F4FCE010596B8010E94960AC701B801CF
:100DD000AE01475E5F4F0E9449050E94C109A0967F
:100DE000E6E00C948F0BA0E2B0E0E9EFF6E00C94A3
:100DF000670B69837A838B839C832D833E834F8328
:100E00005887CE010196BE01675F7F4F0E94960A08
:100E1000CE010596BE016F5E7F4F0E94960A9985AE
:100E2000923088F089898230C8F0943019F4823089
:100E300051F404C0843029F4923081F486E692E0C3
:100E4000C6C0923049F420E09A858A89981321E03F
:100E50002A87CE010996BBC0823049F420E09A85EA
:100E60008A89981321E02A8BCE014196B0C02D8447
:100E70003E844F8458886D887E888F88988CEE24B5
:100E8000FF248701AA24BB24650140E050E060E014
:100E900070E0E0E0F0E0C10181709070892BE9F032
:100EA000E60CF71C081D191D9A01AB012A0D3B1D0C
:100EB0004C1D5D1D80E090E0A0E0B0E0E614F7047A
:100EC0000805190520F481E090E0A0E0B0E0BA0147
:100ED000A901480F591F6A1F7B1FAA0CBB1CCC1C01
:100EE000DD1C97FE08C081E090E0A0E0B0E0A82AF9
:100EF000B92ACA2ADB2A3196E032F10549F0660C9C
:100F0000771C881C991C5694479437942794C3CF18
:100F1000FA85EA892B893C898B859C85280F391FA6
:100F20002E5F3F4F17C0CA0181709070892B61F00E
:100F300016950795F794E79480E090E0A0E0B0E87C
:100F4000E82AF92A0A2B1B2B769567955795479522
:100F50002F5F3F4F77FDE7CF0CC0440F551F661F33
:100F6000771F17FD4160EE0CFF1C001F111F215061
:100F70003040403090E0590790E0690790E47907ED
:100F800060F32B8F3C8FDB01CA018F779070A070CC
:100F9000B07080349105A105B10561F447FD0AC028
:100FA000E114F1040105110529F0405C5F4F6F4F1A
:100FB0007F4F40781A8EFE1711F081E08A8F4D8F97
:100FC0005E8F6F8F78A383E0898FCE0149960E9450
:100FD000C109A096E2E10C94830BA8E1B0E0E3EF35
:100FE000F7E00C946F0B69837A838B839C832D834A
:100FF0003E834F835887B9E0EB2EF12CEC0EFD1E9B
:10100000CE010196B7010E94960A8E010F5E1F4F16
:10101000CE010596B8010E94960A2985223008F46F
:101020007EC03989323010F4B8017CC08A859A8933
:1010300089278A87243011F0223031F4231709F0F0
:101040006EC066E672E06EC0343039F41D861E86CE
:101050001F86188A1C861B8604C0323021F484E067
:101060008987B7015FC02B853C858B899C89281BAC
:10107000390B3C872B87ED84FE840F851889AD885A
:10108000BE88CF88D88CEA14FB040C051D0540F4FB
:10109000EE0CFF1C001F111F215030403C872B8796
:1010A00020E030E040E050E080E090E0A0E0B0E4FC
:1010B00060E070E0EA14FB040C051D0540F0282BED
:1010C000392B4A2B5B2BEA18FB080C091D09B69536
:1010D000A79597958795EE0CFF1C001F111F6F5F5A
:1010E0007F4F6F31710531F7DA01C9018F77907049
:1010F000A070B07080349105A105B10561F427FDA1
:101100000AC0E114F1040105110529F0205C3F4FEC
:101110004F4F5F4F20782D873E874F87588BBE01FA
:10112000675F7F4FCB010E94C1096896EAE00C948B
:101130008B0BA8E1B0E0EFE9F8E00C94730B698346
:101140007A838B839C832D833E834F83588789E0EA
:10115000E82EF12CEC0EFD1ECE010196B7010E9487
:10116000960A8E010F5E1F4FCE010596B8010E94B0
:10117000960A8985823040F08989823028F0C7013B
:10118000B8010E940E0B01C08FEF6896E6E00C9448
:101190008F0BA8E1B0E0EFECF8E00C94730B6983DF
:1011A0007A838B839C832D833E834F83588789E08A
:1011B000E82EF12CEC0EFD1ECE010196B7010E9427
:1011C000960A8E010F5E1F4FCE010596B8010E9450
:1011D000960A8985823040F08989823028F0C701DB
:1011E000B8010E940E0B01C081E06896E6E00C9405
:1011F0008F0BA8E0B0E0EFEFF8E00C946F0B7B01F1
:101200008C01611571058105910519F482E08983CE
:1012100060C083E089838EE1C82ED12CDC82CB8232
:10122000ED82FE820F831887C801B7010E94720900
:10123000FC013197F7FF3BC0222733272E1B3F0BC2
:1012400057016801022E04C0D694C794B794A7949E
:101250000A94D2F740E050E060E070E081E090E076
:10126000A0E0B0E004C0880F991FAA1FBB1F2A95F9
:10127000D2F70197A109B1098E219F21A023B123A3
:101280000097A105B10521F041E050E060E070E079
:101290004A295B296C297D294D835E836F8378877A
:1012A0008EE190E08E1B9F0B9C838B8312C0309746
:1012B00081F00E2E04C0EE0CFF1C001F111F0A94BB
:1012C000D2F7ED82FE820F831887CE1ADF0ADC8206
:1012D000CB821A82CE0101960E94C1092896EAE0CB
:1012E0000C948B0BEF92FF920F931F937B018C0159
:1012F00080E0E81680E0F80681E0080780E0180743
:1013000088F48FEFE816F1040105110531F028F09B
:1013100088E090E0A0E0B0E017C080E090E0A0E0BE
:10132000B0E012C080E0E81680E0F80680E0080730
:1013300081E0180728F088E190E0A0E0B0E004C068
:1013400080E190E0A0E0B0E020E230E040E050E05A
:10135000281B390B4A0B5B0B04C016950795F794B5
:10136000E7948A95D2F7F701E259FD4F8081281B57
:10137000310941095109C9011F910F91FF90EF9067
:101380000895DF92EF92FF920F931F93FC01E48088
:10139000F58006811781D1808081823048F480E019
:1013A00090E0A0E1B0E0E82AF92A0A2B1B2BA5C0A7
:1013B000843009F49FC0823021F4EE24FF24870199
:1013C00005C0E114F1040105110519F4E0E0F0E0B5
:1013D00096C0628173819FEF623879070CF05BC021
:1013E00022E83FEF261B370B2A3131052CF020E095
:1013F00030E040E050E02AC0B801A701022E04C04E
:1014000076956795579547950A94D2F781E090E0D5
:10141000A0E0B0E004C0880F991FAA1FBB1F2A9547
:10142000D2F70197A109B1098E219F21A023B123F1
:101430000097A105B10521F081E090E0A0E0B0E0C7
:101440009A01AB01282B392B4A2B5B2BDA01C901FE
:101450008F779070A070B07080349105A105B105B0
:1014600039F427FF09C0205C3F4F4F4F5F4F04C046
:10147000215C3F4F4F4F5F4FE0E0F0E02030A0E0B5
:101480003A07A0E04A07A0E45A0710F0E1E0F0E0D4
:1014900079018A0127C06038710564F5FB01E158C4
:1014A000FF4FD801C7018F779070A070B070803463
:1014B0009105A105B10539F4E7FE0DC080E490E087
:1014C000A0E0B0E004C08FE390E0A0E0B0E0E80E60
:1014D000F91E0A1F1B1F17FF05C016950795F794E5
:1014E000E794319687E016950795F794E7948A95E7
:1014F000D1F705C0EE24FF248701EFEFF0E06E2F57
:10150000679566276795902F9F77D794DD24D794AA
:101510008E2F8695492F462B582F5D29B701CA017A
:101520001F910F91FF90EF90DF900895FC01DB0178
:10153000408151812281622F6F7770E0221F222724
:10154000221F9381892F880F822B282F30E0991F2B
:101550009927991F11969C93119721153105A9F58B
:10156000411551056105710511F482E037C082E82B
:101570009FEF13969C938E9312979A01AB0167E0AD
:10158000220F331F441F551F6A95D1F783E08C93B8
:101590000DC0220F331F441F551F12968D919C9131
:1015A0001397019713969C938E931297203080E0A7
:1015B000380780E0480780E4580758F314962D93C5
:1015C0003D934D935C93179708952F3F310579F420
:1015D000411551056105710519F484E08C93089556
:1015E00064FF03C081E08C9312C01C9210C02F577F
:1015F000304013963C932E93129783E08C9387E0B0
:10160000440F551F661F771F8A95D1F77064149693
:101610004D935D936D937C93179708951F93DC0111
:10162000FB019C91923008F447C08081823008F41D
:1016300043C0943051F411961C91843099F5818106
:10164000682F70E0611B71093FC0843021F0923037
:1016500031F48230B9F18181882389F12DC011964E
:101660001C9111978230F1F081811817D9F41296EC
:101670002D913C911397828193818217930794F067
:1016800028173907BCF014968D919D910D90BC914F
:10169000A02D2481358146815781281739074A07B3
:1016A0005B0718F4112341F00AC082179307A407BF
:1016B000B50740F4112319F061E070E005C06FEF49
:1016C0007FEF02C060E070E0CB011F9108952F9280
:1016D0003F924F925F926F927F928F929F92AF92C2
:1016E000BF92CF92DF92EF92FF920F931F93CF930F
:1016F000DF93CDB7DEB7CA1BDB0B0FB6F894DEBFA6
:101700000FBECDBF09942A88398848885F846E84CB
:101710007D848C849B84AA84B984C884DF80EE8015
:10172000FD800C811B81AA81B981CE0FD11D0FB61E
:10173000F894DEBF0FBECDBFED010895EF92FF928A
:101740000F931F93F22FF02E47FD02C0E4E001C07B
:10175000E4E1242F332727FD309537FF03C0309570
:1017600021953F4F4F2D512F0F2FEE2E0E94010C30
:101770008F2D912F1F910F91FF90EF90089511F4ED
:101780000EF487C278C297D2D0F39923D9F3CEF35F
:101790009F57550B87FF80D20024A0E640EA9001B6
:1017A00080585695979528F4805C660F771F881FA0
:1017B00020F026173707480730F4621B730B840BA1
:1017C000202931294A2BA6951794079420253125E5
:1017D0004A2758F7660F771F881F20F0261737070C
:1017E000480730F4620B730B840B200D311D411D33
:1017F000A09581F7B901842F9158880F9695879508
:101800000895A9E0B0E0E7E0FCE00C946B0B6A01FE
:10181000122FA02EBE2C2BE3201718F42CE3922EAF
:1018200002C0902E9394AE014F5F5F4F27E0092DC9
:101830000E94630DBC018981E82EFF24C7018970D5
:101840009070019711F4ADE209C0B1FE02C0ABE2A5
:1018500005C0B0FC02C0A0E001C0A0E2E3FE3BC0B6
:10186000AA2311F423E001C024E0211710F020E0A6
:1018700002C0121B212FEB2CB4FE02C0322F0AC073
:10188000F601322F80E202C0819331503323E1F719
:10189000C20ED11CAA2319F0F601A1936F01F60123
:1018A0003196E2FE05C09EE4D6019C9381E404C01B
:1018B0009EE6D6019C9381E611968C939183329695
:1018C000DF01832F90E202C09D9381508823E1F7CE
:1018D000E30FF11D40C0E2FE42C0AA2311F423E051
:1018E00001C024E0211710F020E002C0121B212FBC
:1018F000EB2CB4FE02C0922F0AC0F601922F80E2B8
:1019000002C0819391509923E1F7C20ED11CAA2302
:1019100019F0F601A1936F01F6013196E2FE08C0BD
:1019200089E4D6018C938EE411968C9386E407C0EB
:1019300089E6D6018C938EE611968C9386E6818398
:101940003296DF01892F20E202C02D938150882337
:10195000E1F7E90FF11D10822EEF3FEFAFC0161631
:1019600017061CF041E050E003C0AB014F5F5F4F32
:10197000AA2019F480E090E003C08A2D90E001963F
:1019800020E030E0AA2311F021E030E0240F351FE1
:10199000280F391F812F90E02817390714F020E015
:1019A00002C0121B212F4B2D50E0CA018071907094
:1019B000B4FC0DC0B3FC0BC0F601322F40E202C0F4
:1019C000419331503323E1F7C20ED11C01C0322FB5
:1019D000AA2319F0F601A1936F01892B11F0132F9F
:1019E0000AC0F601132F80E302C081931150112326
:1019F000E1F7C30ED11C092D060FBA8090E1892EA4
:101A0000912C8E209F20E4FE04C0F1E3BF1609F460
:101A10000150101614F001E003C0093008F008E08E
:101A20009B0177FF02C020E030E0CB010196821BD2
:101A3000930BFE013196E80FF91F8EE2F82E3B0161
:101A4000601A71088A2D90E044275527481B590BCE
:101A50008FEF2F3F380719F4D601FD926D01621701
:101A600073072CF06216730614F4808101C080E3C2
:101A70002150304031962417350724F0D6018D933C
:101A80006D01E6CF2617370749F4B5E3BB1528F0FB
:101A9000BB1621F48114910409F481E3F6018193CA
:101AA000D601812F90E202C09C9381501196882329
:101AB000D9F7E10FF11D108220E030E0C90129962D
:101AC000EEE00C94870B283008F027E03327DA018A
:101AD000990F311D87FD916000966105710539F4FC
:101AE00032602E5F3D9330E32A95E1F708959F3FE2
:101AF00030F080387105610509F03C5F3C5F3D9333
:101B0000913008F08068911DDF93CF931F930F935E
:101B1000FF92EF92192F987F9695E92F96959695BB
:101B2000E90FFF27EE55FD4F99273327EE24FF24B9
:101B3000A701E70105900894079428F4360FE71EE3
:101B4000F81E491F511D660F771F881F991F0694A5
:101B5000A1F70590079428F4E70EF81E491F561FB9
:101B6000C11D770F881F991F661F0694A1F7059066
:101B7000079428F4F80E491F561FC71FD11D880F60
:101B8000991F661F771F0694A1F70590079420F40C
:101B9000490F561FC71FD81F990F661F771F881F31
:101BA0000694A9F784911095177041F0D695C795C2
:101BB00057954795F794E7941A95C1F7E8E4F2E052
:101BC00068941590159135916591959105907FE2F6
:101BD0007395E118F10A430B560BC90BD009C0F7F6
:101BE000E10CF11E431F561FC91FD01D7EF4703338
:101BF00011F48A95E6CFE894015030F0080F0AF40A
:101C00000027021708F4202F2395022F7A3328F09B
:101C100079E37D932A95E9F710C07D932A9589F69B
:101C2000069497956795379517951794E118F10ADB
:101C3000430B560BC90BD00998F023957E917395F1
:101C40007A3308F070E37C932013B8F77E917061CB
:101C50007D9330F0839571E37D9370E32A95E1F7EE
:101C60001124EF90FF900F911F91CF91DF91992751
:101C700087FD909508959F3F31F0915020F487950E
:101C800077956795B795880F911D9695879597F9E4
:101C900008959FEF80EC089591505040660F771F94
:101CA000881FD2F7089557FD9058440F551F59F0DB
:101CB0005F3F71F04795880F97FB991F61F09F3F39
:101CC00079F087950895121613061406551FF2CF62
:101CD0004695F1DF08C0161617061806991FF1CFB2
:0E1CE00086957105610508940895F894FFCF6C
:101CEE002A2A20564F4C544D45544552202A2A003C
:101CFE005A4D5054313031422053656E736F72001D
:101D0E004C656374757265723A005369722048614E
:101D1E007373616E556C486171004C6561643A2055
:101D2E004D2E20546168612045452D3233333139B3
:101D3E00000D0A003D3D3D3D3D3D3D3D3D3D3D3DA2
:101D4E003D3D3D3D3D3D3D3D3D3D3D3D3D3D3D3DB5
:101D5E003D3D3D3D0D0A0020202020202020202A40
:101D6E002A20564F4C544D45544552202A2A2020A5
:101D7E00202020202020200D0A0020202020205A64
:101D8E004D5054313031422041432053656E736FB4
:101D9E00722020202020202020200D0A002D2D2D05
:101DAE002D2D2D2D2D2D2D2D2D2D2D2D2D2D2D2D55
:101DBE002D2D2D2D2D2D2D2D2D2D2D2D2D0D0A00B5
:101DCE00204C65637475726572203A2053697220D7
:101DDE0048617373616E556C48617120202020201C
:101DEE000D0A00204C65616420202020203A204DF1
:101DFE007568616D6D616420546168612045452D83
:101E0E003331390D0A002020566176673A200020C2
:101E1E005620207C202056726D733A200020560DDD
:101E2E000A003D3D3D20564F4C544D4554455220E1
:101E3E003D3D3D004143203530487A20205A4D50DB
:101E4E00543130314200000000000000000000015B
:101E5E00020203030303040404040404040405053A
:101E6E000505050505050505050505050505060612
:101E7E0006060606060606060606060606060606F4
:101E8E0006060606060606060606060606060707E2
:101E9E0007070707070707070707070707070707C4
:101EAE0007070707070707070707070707070707B4
:101EBE0007070707070707070707070707070707A4
:101ECE000707070707070707070707070707080892
:101EDE000808080808080808080808080808080874
:101EEE000808080808080808080808080808080864
:101EFE000808080808080808080808080808080854
:101F0E000808080808080808080808080808080843
:101F1E000808080808080808080808080808080833
:101F2E000808080808080808080808080808080823
:101F3E000808080808080808080808080808080813
:0E1F4E00080808080808080808080808080815
:00000001FF
